:020000040800F2
:10000000980A0020F5150008410300084303000882
:10001000470300084B0300084F03000800000000DE
:100020000000000000000000000000005303000872
:10003000550300080000000057030008590300089A
:100040000F1600080F1600080F1600080F160008FC
:100050000F1600080F160008970500080F16000875
:100060000F1600080F1600080F1600080F160008DC
:100070000F1600080F1600080F1600080F160008CC
:100080000F1600080F1600080F1600080F160008BC
:100090000F1600080F1600080F1600080F160008AC
:1000A0000F1600080F1600080F1600080F1600089C
:1000B000111300080F1600080F1600080F1600088D
:1000C0000F1600080F1600080F1600080F1600087C
:1000D0000F160008CB1400087F1500080F16000843
:1000E0000F1600080F1600080F1600080F1600085C
:1000F0000F1600080F1600080F1600080F1600084C
:100100000F1600080F1600080F1600080F1600083B
:100110000F1600080F1600080F1600080F1600082B
:100120000F1600080F1600080F1600080F1600081B
:1001300000F002F800F045F80AA090E8000C8244B4
:100140008344AAF10107DA4501D100F03AF8AFF291
:10015000090EBAE80F0013F0010F18BFFB1A43F0A5
:100160000103184784330000A4330000103A24BF71
:1001700078C878C1FAD8520724BF30C830C144BF0C
:1001800004680C607047000000230024002500264E
:10019000103A28BF78C1FBD8520728BF30C148BFEA
:1001A0000B607047642903F03F80782903F0788062
:1001B000732903F02281002070471FB51FBD10B5C1
:1001C00010BD03F04DF91146FFF7F7FF00F021F8DD
:1001D00003F06BF903B4FFF7F2FF03BC01F01AF967
:1001E000012282403F4B1A6049B13E4A143A1268DC
:1001F000012383401A433B4B143B1A6008E0394A01
:10020000143A1268012383409A43364B143B1A6018
:10021000704701F095F84FF4A06001F00BFA4FF42D
:10022000E13001F006F94FF4614001F05AF941F66E
:100230001F41632001F03EF800202B490880002177
:100240004FF0804002F018FC00F05CF900F076F905
:10025000264800F093FE264800F043FC05462DB9E1
:100260002248018823A002F075FF02E0284600F032
:10027000C7FE4FF47A7001F0A0F821A002F06AFFE7
:100280002EE02148007800282AD000210846FFF7F8
:10029000A7FF002413E001211C4801F02CFB00B94A
:1002A0000FE000F04BFF1A48007818B10020184901
:1002B000087006E017A002F04DFF601CC4B2032CCA
:1002C000E9DB00BF022C04DD18A002F043FF00F0C0
:1002D000A0FE01210020FFF783FF00200A490870DB
:1002E000CFE7000014040140260000201A0000207F
:1002F0004400002056616C6964204E3D25640A006C
:100300005374617274210A0018000020000C01402F
:10031000000000202323706C65617365207472797E
:1003200020616761696E210A000000006E6F20790C
:100330006F75722066696E676572210A00000000A1
:10034000704700BFFEE700BFFEE700BFFEE700BF4B
:10035000FEE7704770477047704700000CB50020FB
:10036000019000905E48006840F480305C4908606D
:1003700000BF5B48006800F4003000900198401C0A
:100380000190009818B90198B0F5A06FF1D15448C8
:10039000006800F4003010B10120009001E000205E
:1003A00000900098012828D14E48006840F01000C5
:1003B0004C4908600846006820F0030008600846C1
:1003C00000680860464840684549486008464068FB
:1003D00048600846406848600846406820F00300CE
:1003E00048600846406840F00100486000BF3C4853
:1003F000406800F00C000428F9D10CBD10B5FFF7DF
:10040000ADFF10BD10B53648006840F0010034491A
:100410000860084640683449084031494860084649
:100420000068324908402E4908600846006820F4F8
:10043000802008600846406820F4FE0048604FF4C1
:100440001F008860FFF7DAFF4FF00060284908605E
:1004500010BD10B5002100200022214B5B6803F085
:100460000C0121B1042906D0082928D107E0214B2D
:10047000214C236027E01F4B1F4C236023E0184BC7
:100480005B6803F47010164B5B6803F48032022340
:1004900003EB904022B9194B4343174C23600DE006
:1004A0000F4B5B6803F4003323B1144B4343124CEE
:1004B000236003E00F4B43430F4C236003E00D4BDD
:1004C0000D4C236000BF00BF054B5B68C3F30313F3
:1004D0000B4CE15C084B1B68CB40074C236010BD04
:1004E00000100240002002400000FFF8FFFFF6FE6F
:1004F00008ED00E000127A000400002000093D0031
:100500000800002008B50121082001F01DFC4FF46F
:100510008050ADF8000010208DF8030003208DF806
:1005200002006946044801F053F94FF48051024833
:1005300001F0FBF908BD0000000C01401FB50121CE
:10054000092001F001FC0120ADF80C0028208DF8F5
:100550000F0003A91A4801F03BF90021012001F026
:100560004DFA0120019000208DF8080008208DF838
:10057000090001A802F06CFD06208DF800000220A1
:100580008DF8010001208DF802008DF80300684607
:1005900001F055F81FBD10B5012002F0BFFD68B194
:1005A000012002F0CCFD322000F007FF01210448B9
:1005B00001F0A1F910B101200249087010BD00003E
:1005C000000C01401800002008B50121042001F0B2
:1005D000BBFB4020ADF8000028208DF8030003206D
:1005E0008DF802006946F74801F0F2F808BD00BF37
:1005F000F549098801F040010029F9D0F249091DA7
:100600000880704700B5EF20FFF7F1FF0120FFF7EA
:10061000EEFF00BD00B5ED490968080EFFF7E7FFE2
:10062000EA480068C0F30740FFF7E1FFE7480088A9
:10063000C0F30720FFF7DBFFE4490878FFF7D7FF97
:1006400000BD00B502461046FFF7D1FF00BD00B562
:100650000246C2F30720FFF7CAFFD0B2FFF7C7FF79
:1006600000BD00B502461046FFF7C1FF00BD00B552
:1006700002461012FFF7BBFFD0B2FFF7B8FF00BD74
:100680007CB50546EF208DF8000001208DF80100B3
:10069000CE480068000E8DF80200CC480068000CBF
:1006A0008DF80300C9480088000A8DF80400C74887
:1006B00000788DF8050007208DF8060000208DF8E1
:1006C0000700C349088012E0012000F076FEC04810
:1006D000008800F4004050B10020BD490880694600
:1006E000BC4802F009FE04460CB120467CBD681EE1
:1006F00080B20500E8D100BFF8E770B5FFF782FFD0
:10070000FFF788FF0120FFF79CFF0320FFF79FFF03
:100710000120FFF7A6FF05263046FFF7A8FF4FF49C
:10072000FA60FFF7ADFF05460DB16C7A00E0FF24DB
:10073000204670BD2DE9F0410546FFF763FFFFF746
:1007400069FF0120FFF77DFF0420FFF780FF0220F3
:10075000FFF787FF2846FFF74AFFEF1D3846FFF7F0
:1007600086FF4FF4FA60FFF78BFF06460EB1747AEE
:1007700000E0FF242046BDE8F08170B5FFF742FF9E
:10078000FFF748FF0120FFF75CFF0320FFF75FFF43
:100790000320FFF766FF07263046FFF768FF4FF498
:1007A000FA60FFF76DFF05460DB16C7A00E0FF249B
:1007B000204670BD2DE9F04781460D4616461F467E
:1007C000FFF720FFFFF726FF0120FFF73AFF082081
:1007D000FFF73DFF0420FFF744FF4846FFF707FF00
:1007E0002812FFF704FFE8B2FFF701FF3012FFF70E
:1007F000FEFEF0B2FFF7FBFE09F10D0000EB252035
:10080000E9B2084400EB2620F1B200EB010A5046A1
:10081000FFF72DFF4FF4FA60FFF732FF044664B193
:1008200094F80980E07AA17A00EB01203880607B9F
:10083000217B00EB0120788001E04FF0FF0840466B
:10084000BDE8F08770B5FFF7DDFEFFF7E3FE01209E
:10085000FFF7F7FE0320FFF7FAFE0520FFF701FF81
:1008600009263046FFF703FF4FF4FA60FFF708FF51
:1008700005460DB16C7A00E0FF24204670BD2DE9DD
:10088000F04106460C46FFF7BDFEFFF7C3FE012010
:10089000FFF7D7FE0620FFF7DAFE0620FFF7E1FE9E
:1008A0003046FFF7A4FE2012FFF7A1FEE0B2FFF7EB
:1008B0009EFE06F10D0000EB2420E1B200EB0108E2
:1008C0004046FFF7D4FE4FF4FA60FFF7D9FE074623
:1008D0000FB17D7A00E0FF252846BDE8F0812DE9C3
:1008E000F04104460D46FFF78DFEFFF793FE012011
:1008F000FFF7A7FE0720FFF7AAFE0C20FFF7B1FEC7
:100900002012FFF774FEE0B2FFF771FE2812FFF726
:100910006EFEE8B2FFF76BFE142000EB2420E1B27C
:10092000084400EB2520E9B200EB01084046FFF740
:100930009EFE4FF4FA60FFF7A3FE07460FB17E7AE2
:1009400000E0FF263046BDE8F08170B5FFF75AFEA3
:10095000FFF760FE0120FFF774FE0320FFF777FE2C
:100960000D20FFF77EFE11263046FFF780FE4FF484
:10097000FA60FFF785FE05460DB16C7A00E0FF24B2
:10098000204670BD0146212971D2DFE801F0111324
:100990001517194D4F5153555759707070705B5D55
:1009A0007070705F7070616365676970706B6D0007
:1009B00009A05EE009A05CE00CA05AE00EA058E09F
:1009C00014A056E000080140004400401C00002034
:1009D00026000020500000204F4B0A0057726F6E17
:1009E00067207061636B6167650A00004E6F206667
:1009F000696E6765720A0000496E707574206669D9
:100A00006E67657220696D616765206661696C65F6
:100A1000640A000046696E67657220697320746F0E
:100A20006F206472790A0000A8A022E0ACA020E048
:100A3000B0A01EE0B5A01CE0BBA01AE0BFA018E06B
:100A4000C5A016E0CBA014E0D0A012E0D5A010E025
:100A5000D9A00EE0DEA00CE0E1A00AE0E6A008E0EC
:100A6000EBA006E0F0A004E0F5A002E0FFE7F7A0AD
:100A700000BF00BF70472DE9F04706460D46FFF75F
:100A8000C1FDFFF7C7FD0120FFF7DBFD0520FFF7E4
:100A9000DEFD0E20FFF7E5FD3046FFF7A8FD2846F6
:100AA000FFF7A5FD701900F114084046FFF7DFFDC0
:100AB0004FF4FA60FFF7E4FD07460FB17C7A00E0DF
:100AC000FF241CB9E6A002F045FB07E02046FFF733
:100AD00059FF81464946E7A002F03CFB2046BDE8AD
:100AE000F0872DE9F0410546FFF78CFDFFF792FDF9
:100AF0000120FFF7A6FD0320FFF7A9FD0F20FFF758
:100B0000B0FD13273846FFF7B2FD4FF47A70FFF7B8
:100B1000B7FD0446BCB1667AE07BA17B00EB012007
:100B20002880607CA870A07C0006E17C00EB01407E
:100B3000217D00EB0120617D08446860E07D287222
:100B4000607E687200E0FF26A6B92988CBA002F07B
:100B500001FBA978CEA002F0FDFAD1A0696802F0ED
:100B6000F9FA687A4FF4165200FB02F1CFA002F0B6
:100B7000F1FA07E03046FFF705FF80464146BDA089
:100B800002F0E8FA3046BDE8F0812DE9F041044674
:100B9000FFF738FDFFF73EFD0120FFF752FD07206C
:100BA000FFF755FD1520FFF75CFD200EFFF71FFD39
:100BB000C4F30740FFF71BFDC4F30720FFF717FD41
:100BC000E0B2FFF714FD1D2000EB1460C4F30741F1
:100BD0000844C4F307210844E1B247183846FFF738
:100BE00046FDB54804604FF4FA60FFF749FD06463C
:100BF0000EB1757A00E0FF25AF4804601DB9AFA0C3
:100C000002F0A8FA07E02846FFF7BCFE80464146FE
:100C100098A002F09FFA2846BDE8F0812DE9F04740
:100C200081460E46FFF7EEFCFFF7F4FC0120FFF7CC
:100C300008FD2420FFF70BFD1820FFF712FD4846A2
:100C4000FFF7D5FC002407E0305DFFF7D0FC305DF6
:100C5000384487B2601CC4B2202CF5DB09F13D009A
:100C6000384487B23846FFF702FD4FF4FA60FFF7C9
:100C700007FD054615B195F8098001E04FF0FF0822
:100C80004046BDE8F0872DE9F04707468846FFF764
:100C9000B9FCFFF7BFFC0120FFF7D3FC0420FFF7EE
:100CA000D6FC1920FFF7DDFC3846FFF7A0FC07F162
:100CB0001E094846FFF7DBFC4FF4FA60FFF7E0FC43
:100CC000064616B1757A002409E10BE146696E67A4
:100CD000657220697320746F6F207765740A000055
:100CE00046696E67657220697320746F6F206D614D
:100CF00073730A0046696E67657220697320746FAA
:100D00006F20736D616C6C0A0000000054776F20D7
:100D100066696E6765727320646F6E2774206D61FB
:100D20007463680A000000004E6F206D6174636890
:100D300065642066696E6765720A000043686172C7
:100D4000616374657220636F6D62696E65206661B0
:100D5000696C65640A00000066696E6765722061EF
:100D6000646472206973206F766572666C6F776554
:100D7000640A000064656C657465206D6F64656C61
:100D8000206661696C65640A00000000636C65613F
:100D9000722066696E676572206661696C65640AB7
:100DA000000000004E6F20696D61676520696E204C
:100DB0006275666665720A00572F7220696E20663A
:100DC0006C617368206661696C65640A00000000EC
:100DD000756E6B6E6F776E206572720A0000000090
:100DE000756E617661696C61766C652072656720ED
:100DF000616464720A00000077726F6E672072652A
:100E00006720696E666F726D6174696F6E0A0000AB
:100E10006E6F7465626F6F6B2070616765207772AB
:100E20006F6E670A0000000066696E676572206C6D
:100E30006962206F766572666C6F770A0000000049
:100E400077726F6E6720616464720A0077726F6EEA
:100E50006720636F6E6665726D20636F64650A005C
:100E60000D0AC9E8D6C3B2CECAFDB3C9B9A6A3A1BB
:100E7000000000000D0A2573000000004D415820BD
:100E800066696E676572204E3D25640A00000000A9
:100E900073656375726974793D25640A000000000A
:100EA00044657649443D25780A0000006269747201
:100EB0006174653D25640A001C0000200D0AC9E824
:100EC000D6C3B5D8D6B7B3C9B9A6A3A10000000050
:100ED00004F10A00305C08F80400601CC4B2202C45
:100EE000F6DB00E0FF252846BDE8F0872DE9F04756
:100EF00081460D4616461F46FFF784FBFFF78AFB27
:100F00000120FFF79EFB0820FFF7A1FB1B20FFF746
:100F1000A8FB4846FFF76BFB2812FFF768FBE8B217
:100F2000FFF765FB3012FFF762FBF0B2FFF75FFBE4
:100F300009F1240000EB2520E9B2084400EB26204B
:100F4000F1B200EB010A5046FFF791FB4FF4FA6053
:100F5000FFF796FB044664B194F80980E07AA17A21
:100F600000EB01203880607B217B00EB0120788042
:100F700001E04FF0FF084046BDE8F0872DE9F04161
:100F80000646FFF73FFBFFF745FB0120FFF759FB44
:100F90000320FFF75CFB1D20FFF763FB212738468A
:100FA000FFF765FB4FF4FA60FFF76AFB044634B1C4
:100FB000657AE07AA17A00EB0120308000E0FF251D
:100FC0003DB9E07AA27A00EB022107A002F0C2F854
:100FD00007E02846FFF7D6FC8046414607A002F00E
:100FE000B9F82846BDE8F08176616C6964206669CD
:100FF0006E676572204E3D25640A000025730A0065
:1010000070B504462046FFF7BDFC054602F0A2F885
:1010100070BD70B5002500268CE0052E1FD2DFE8DC
:1010200006F0031F3B50610059A002F093F8681CC2
:10103000C5B2FFF762FB044674B90120FFF77AFBE3
:1010400004462CB955A002F085F80025012606E0DB
:101050002046FFF7D5FF02E02046FFF7D1FF61E011
:1010600056A002F077F8681CC5B2FFF746FB0446AD
:1010700074B90220FFF75EFB04462CB953A002F0BE
:1010800069F80025022606E02046FFF7B9FF02E0D6
:101090002046FFF7B5FF45E056A002F05BF8FFF7EA
:1010A0006CFB044624B957A002F054F8032607E06D
:1010B00059A002F04FF82046FFF7A2FF00250026B6
:1010C00030E05BA002F046F8FFF7BCFB044624B911
:1010D0005CA002F03FF8042603E000262046FFF75C
:1010E0008FFF1FE05AA002F035F85E480088401CD0
:1010F00080B25C4A108001460220FFF7C0FB044624
:101100005CB95848FFF73AFF57A002F023F855485A
:10111000018858A002F01EF870BD00262046FFF797
:101120006FFF00BF00BF4FF4C87000F046F9052DF7
:1011300000D100E071E700BF00BFEDE738B5FFF771
:10114000DCFA04461CBB0120FFF7F4FA0446BCB9E4
:101150004E4802886B4600210120FFF7C7FE044677
:1011600054B901204A490870BDF80220BDF80010AA
:1011700048A001F0EFFF06E02046FFF741FF02E044
:101180002046FFF73DFF4FF4167000F016F938BD0A
:1011900023237072657373210A00000066696E670D
:1011A0006572206F6B0A23236D6F76652066696E0A
:1011B0006765722061776179210A000023237072CC
:1011C00065737320616761696E210A0066696E67E5
:1011D0006572206F6B20616761696E0A23236D6FF2
:1011E00076652066696E6765722061776179210A8C
:1011F000000000006D61746368696E672E2E2E0A10
:101200000000000066696E676572206D6174636836
:10121000206F6B0A0000000066696E676572206DC2
:1012200061746368206661696C65642E0A00000061
:101230007265674D6F64656C6C696E672E2E2E0A41
:10124000000000004D6F64656C206F6B2E0A00007B
:1012500073746F72696E672066696E6765722E2E91
:101260002E0A00001A00002073746F7265206F6BE5
:101270000A00000074686572652069732025642087
:1012800066696E676572730A000000004400002002
:101290000000002066696E67657220657869737466
:1012A000212349443D25642D2D73636F72653D25CF
:1012B000640000007FB505460C460121084600F099
:1012C00050FDADF80850ADF804400020ADF80A001C
:1012D000ADF8060001A94FF0804001F071F801223D
:1012E0001146900701F0E3FB1C208DF80000002060
:1012F0008DF8010002208DF8020001208DF8030016
:10130000684600F09CF90121880701F0B5FB7FBD1C
:1013100010B50121880701F078FE70B107480088F8
:1013200040F40040054908800121880701F07EFE55
:1013300000214FF0804001F09FFB10BD26000020EF
:1013400010B56FF0040000F0C4F92E4800682E4973
:10135000B0FBF1F02D4908700846007800EB400121
:10136000C1EBC0104FF6FF7101EAC00028490880A8
:1013700010BD0146254A12784A434FF0E0235A61D6
:1013800000229A611A46126942F001021A6100BFF6
:101390004FF0E022106900F001021AB100F480322F
:1013A000002AF5D04FF0E022126922F001024FF03E
:1013B000E0231A6100229A6170470146144A12889C
:1013C0004A434FF0E0235A6100229A611A4612699B
:1013D00042F001021A6100BF4FF0E022106900F0F4
:1013E00001021AB100F48032002AF5D04FF0E02259
:1013F000126922F001024FF0E0231A6100229A6183
:10140000704700000400002000127A002000002035
:1014100022000020014600BF704700BF704A1288BA
:1014200002F04002002AF9D0C2B26D4B1B1D1A8097
:10143000704710B586B00446012144F2040000F064
:1014400083FC4FF40070ADF8140003208DF81600F3
:1014500018208DF8170005A9624800F0B9F94FF47B
:101460008060ADF8140004208DF8170005A95D48D0
:1014700000F0AEF925208DF8000003208DF8010062
:101480008DF8020001208DF80300684600F0D7F8BF
:1014900001940020ADF80800ADF80A00ADF80C008A
:1014A000ADF810000C20ADF80E0001A94C4800F07A
:1014B000F2FC012240F22551494800F084FD01214F
:1014C000474800F074FD06B010BD10B540F225513C
:1014D000434800F05DFE18B1414800F0D9FDC4B2A8
:1014E00010BD10B586B004460121480400F039FC57
:1014F0000121042000F028FC0420ADF81400032092
:101500008DF8160018208DF8170005A9354800F051
:101510005FF90820ADF8140004208DF8170005A924
:10152000304800F055F926208DF8000003208DF892
:10153000010002208DF8020001208DF803006846AA
:1015400000F07DF801940020ADF80800ADF80A0025
:10155000ADF80C00ADF810000C20ADF80E0001A99C
:10156000214800F098FC012240F225511E4800F06D
:101570002AFD01211C4800F01AFD06B010BD10B56F
:1015800040F22551184800F003FE00B3164800F061
:101590007FFDC4B21548008800F40040B8B9134874
:1015A0000088B0F5C87F13DA00214FF0804001F0C9
:1015B000F7FC0E48008818B90121880701F05CFA91
:1015C0000A490888411C094A118009490C5405E060
:1015D0000648008840F400400449088010BD00001F
:1015E000003801400008014000440040260000206F
:1015F000500000200948804709480047FEE7FEE701
:10160000FEE7FEE7FEE7FEE7FEE7FEE7FEE7FEE7B2
:1016100004480549054A064B7047000005040008C8
:101620003101000898040020980A00209806002044
:101630009806002031490143314A1160704770B566
:10164000002100230F22C47804B32D4C246804F435
:10165000E064C4F5E064210AC1F10403CA4044789F
:1016600004FA03F18478144021430901254C0678DB
:10167000A155047804F01F050124AC4005786D11D4
:10168000AD0005F1E025C5F8004109E0047804F05B
:101690001F050124AC401C4D0678761145F8264004
:1016A00070BD1A4A0A400243154B1B1F1A6070474F
:1016B00039B1134A121D12680243114B1B1D1A60E7
:1016C00006E00F4A121D126882430D4B1B1D1A6063
:1016D0007047042808D14FF0E021096941F0040166
:1016E0004FF0E022116107E04FF0E021096921F09D
:1016F00004014FF0E0221161704700000000FA057C
:101700000CED00E000E400E080E100E080FFFF1F5E
:1017100010B50446CC48844208D10121042000F0D1
:101720002DFB0021042000F029FB46E0C74884423D
:1017300008D10121082000F021FB0021082000F041
:101740001DFB3AE0C248844208D10121102000F07C
:1017500015FB0021102000F011FB2EE0BD48844253
:1017600008D10121202000F009FB0021202000F0F9
:1017700005FB22E0B848844208D10121402000F056
:10178000FDFA0021402000F0F9FA16E0B348844247
:1017900008D10121802000F0F1FA0021802000F022
:1017A000EDFA0AE0AE48844207D10121801500F02D
:1017B000E5FA0021A01500F0E1FA10BD10B50121F5
:1017C000084600F0DBFA0021012000F0D7FA10BD36
:1017D0002DE9F041024600250026002000230024C8
:1017E000002791F803C00CF00F0591F803C00CF02E
:1017F000100CBCF1000F03D091F802C04CEA0505B3
:1018000091F800C0BCF1000F31D0146800202BE02B
:101810004FF0010C0CFA00F3B1F800C00CEA03061B
:101820009E4220D183004FF00F0C0CFA03F7BC430B
:1018300005FA03FC4CEA040491F803C0BCF1280F3C
:1018400006D14FF0010C0CFA00FCC2F814C00AE0FB
:1018500091F803C0BCF1480F05D14FF0010C0CFA10
:1018600000FCC2F810C0401C0828D1D31460B1F8A5
:1018700000C0BCF1FF0F34DD546800202EE000F101
:10188000080C4FF0010808FA0CF3B1F800C00CEA9C
:1018900003069E4221D183004FF00F0C0CFA03F790
:1018A000BC4305FA03FC4CEA040491F803C0BCF104
:1018B000280F05D100F1080C08FA0CF8C2F81480C2
:1018C00091F803C0BCF1480F07D100F1080C4FF0AC
:1018D000010808FA0CF8C2F81080401C0828CED382
:1018E0005460BDE8F0814FF6FF71018002218170E4
:1018F0000421C17070470246002093680B400BB171
:10190000012000E0002070470146886880B27047DF
:1019100002460020D3680B400BB1012000E00020FC
:1019200070470146C86880B27047016170474161E5
:1019300070470AB1016100E041617047C1607047C2
:101940004FF480320A4382618161826182698269D7
:10195000704702460020434B18684FF680731840CA
:1019600040EA021008433F4B186070473E49C86187
:101970007047F0B50A46002300240021002500F03E
:101980000046B6F1004F02D1364EF16901E0354E06
:101990007168C0F3034583B200F44016B6F5401FEA
:1019A00008D121F070612F4E766826F070662D4FB9
:1019B0007E6012E000F48016B6F5801F06D1032683
:1019C00006FA05F4A14341F0706106E0460D3601C8
:1019D00003FA06F6B14341F0706122B1460D3601BB
:1019E00003FA06F6314300F00046B6F1004F02D18B
:1019F0001C4EF16101E01B4E7160F0BD30B500225C
:101A00008B071C0F0F2303FA04F2164B08338C10BC
:101A100053F824309343134C08348D1044F8253088
:101A200023468C1053F824308C07240F00FA04F45A
:101A300023430C4C08348D1044F8253030BD0A493E
:101A4000DC3108607047000000080140000C0140D4
:101A5000001001400014014000180140001C01402A
:101A6000002001400000014000002042DF480068E3
:101A700040F00100DD49086008464068DC49084044
:101A8000DA49486008460068DA490840D7490860E2
:101A90000846006820F4802008600846406820F46A
:101AA000FE0048604FF41F0088607047CF49096806
:101AB00021F48031CD4A11601146096821F480215A
:101AC0001160B0F5803F03D0B0F5802F0ED106E055
:101AD000C649096841F48031C44A116007E0C3492E
:101AE000096841F4A021C14A116000E000BF00BFB5
:101AF000704710B501460022002300204A11012A38
:101B000002D1BA4C236806E0022A02D1B74C236AFC
:101B100001E0B64C636A01F01F02012494401C40AE
:101B20000CB1012000E0002010BD38B5002000906D
:101B30000024002500BF3120FFF7DBFF0546009899
:101B4000401C00900098B0F5A06F01D0002DF2D09D
:101B50003120FFF7CEFF08B1012400E00024204629
:101B600038BD01460020A14A106820F0F80040EA84
:101B7000C10010607047A04908607047024600200D
:101B80009A4B586820F47C1042EA01031843974BA3
:101B90005860704798490866704701460020934A8C
:101BA000506820F003000843506070478F48406839
:101BB00000F00C007047014600208C4A506820F06D
:101BC000F00008435060704701460020874A506883
:101BD00020F4E06008435060704701460020834ACB
:101BE000506820F4605040EAC1005060704729B14D
:101BF0007E4A527A02437D4B5A7204E07B4A527A03
:101C000082437A4B5A7270477B49D83108607047DB
:101C100001460020754A506820F440400843506057
:101C200070470021714A20321170704A82F82010EA
:101C3000012802D004280AD104E001216B4A203295
:101C4000117005E00521694A2032117000E000BFE3
:101C500000BF70476949086070476449096A0143D9
:101C6000624A11627047654944390860704730B56F
:101C700000210022002400235C4D6D6805F00C015A
:101C800021B1042905D0082923D105E05C4D056068
:101C900022E05B4D05601FE0544D6D6805F4701245
:101CA000524D6D6805F48034022505EB92421CB953
:101CB000544D554305600BE04C4D6D6805F40035FF
:101CC0001DB1504D5543056002E04D4D5543056033
:101CD00002E04B4D056000BF00BF444D6D6805F04C
:101CE000F0010909484D6B5C0568DD4045603F4DDA
:101CF0006D6805F4E061090A434D6B5C4568DD40A1
:101D000085603A4D6D6805F46051C90A3E4D6B5CC3
:101D10004568DD40C560354D6D6805F44041890B6F
:101D20003A4D6B5CC568B5FBF3F5056130BD29B173
:101D30002E4A526902432D4B5A6104E02B4A5269E4
:101D400082432A4B5A61704729B1284A926902435B
:101D5000264B9A6104E0254A92698243234B9A619B
:101D6000704729B1214AD2690243204BDA6104E06D
:101D70001E4AD26982431D4BDA61704729B11B4A62
:101D8000D2680243194BDA6004E0184AD2688243F1
:101D9000164BDA60704729B1144A12690243134B9B
:101DA0001A6104E0114A12698243104B1A617047AC
:101DB00012494039086070470F49C86470470B49A1
:101DC000C87170470948406A40F08070074948620E
:101DD000704701460020054A92680A400AB1012076
:101DE00000E00020704701498872704700100240EF
:101DF0000000FFF8FFFFF6FE00004242800442426E
:101E000000127A0000093D002E0000203E00002054
:101E100010B50446FB48844209D101218803FFF72D
:101E2000ADFF00214FF48040FFF7A8FF32E0F648F5
:101E3000844209D101214804FFF7ADFF00214FF48E
:101E40000030FFF7A8FF25E0F048844209D10121C6
:101E50008804FFF7A0FF00214FF48020FFF79BFFCD
:101E600018E0EB48844209D10121C804FFF793FF31
:101E700000214FF40020FFF78EFF0BE0E54884427D
:101E800008D101210805FFF786FF00214FF48010DB
:101E9000FFF781FF10BD2DE9F04786B005460E46DD
:101EA0000024A24600BFA1460027B08900B100BFB0
:101EB0002F462C8A4CF6FF700440F08804432C8295
:101EC000AC894EF6F3100440B0883189084371891B
:101ED00008430443AC81AC8A4FF6FF400440B0890C
:101EE0000443AC8201A8FFF7C2FEC648874202D174
:101EF000DDF810A001E0DDF80CA0A88900F4004096
:101F000040B10AEBCA0000EB0A1031684900B0FB8F
:101F1000F1F807E00AEBCA0000EB0A10316889000B
:101F2000B0FBF1F86420B8FBF0F004012009642153
:101F300001FB1089A88900F4004040B1322000EB79
:101F4000C900B0FBF1F000F00700044308E03220C4
:101F500000EB09106421B0FBF1F000F00F00044326
:101F60002C8106B0BDE8F0874FF4165101600021C6
:101F70008180C18001810C214181002181817047D4
:101F800010B502460020108A4FF2FF0318400B885C
:101F90004C8823438C882343CC88234318431082E6
:101FA00010BD0021018041808180C180704721B136
:101FB000828942F40052828104E082894DF6FF73E7
:101FC0001A4082817047F0B50346002400260025A0
:101FD000002040F66A17B94200D100BF1846C1F38D
:101FE000421401F01F06012707FA06F5012C01D162
:101FF0000C3004E0022C01D1103000E014301AB192
:1020000007682F43076002E00768AF430760F0BD31
:102010001AB1838A0B43838202E0838A8B438382D3
:102020007047028A4FF6F0731A400282028A0A430E
:102030000282704782894FF2FF731A40828182893F
:102040000A438281704721B1828942F00202828173
:1020500004E082894FF6FD731A4082817047028A3C
:102060004FF6DF731A400282028A0A4302827047E7
:1020700021B1028A42F48042028204E0028A4BF6D5
:10208000FF731A4002827047C1F3080282807047D2
:1020900001468888C0F308007047818941F001013A
:1020A00081817047028BD2B20283028B42EA012205
:1020B00002837047028B02F47F420283028B0A4341
:1020C0000283704721B1828A42F02002828204E0BA
:1020D000828A4FF6DF731A408282704721B1828A6A
:1020E00042F01002828204E0828A4FF6EF731A40B7
:1020F0008282704721B1828A42F00802828204E023
:10210000828A4FF6F7731A408282704721B1828922
:1021100042F40042828103E08289C2F30E0282818E
:10212000704721B1828A42F40062828204E0828A8E
:102130004FF2FF731A4082827047828A4FF6FB7318
:102140001A408282828A0A438282704721B1828A3F
:1021500042F00202828204E0828A4FF6FD731A4046
:102160008282704702460020B1F5007F00D100BF97
:1021700013880B400BB1012000E00020704701F4F0
:102180000072B2F5007F00D100BFCA4302807047E1
:1021900070B50246002400230025002040F66A1690
:1021A000B14200D100BFC1F3421501F01F03012667
:1021B00006FA03F3012D02D19689334006E0022D81
:1021C00002D1168A334001E0968A33400C12012670
:1021D00006FA04F41688344013B10CB1012000E073
:1021E000002070BD10B50022002340F66A14A14201
:1021F00000D100BF0A1201249440A3B2DC43048042
:1022000010BD00000038014000440040004800407C
:10221000004C00400050004010B50446FE48844287
:1022200008D10121C014FFF7A9FD0021E014FFF738
:10223000A5FDC4E0B4F1804F08D101210846FFF7A5
:10224000AAFD00210120FFF7A6FDB8E0F348844273
:1022500008D101210220FFF79EFD00210220FFF797
:102260009AFDACE0EE48844208D101210420FFF73A
:1022700092FD00210420FFF78EFDA0E0E948844292
:1022800008D101210820FFF786FD00210820FFF773
:1022900082FD94E0E448844208D101211020FFF738
:1022A0007AFD00211020FFF776FD88E0DF488442A8
:1022B00008D101212020FFF76EFD00212020FFF72B
:1022C0006AFD7CE0DA48844208D101214014FFF71E
:1022D00055FD00216014FFF751FD70E0D5488442A0
:1022E00009D10121C804FFF749FD00214FF4002066
:1022F000FFF744FD63E0D048844209D1012108057D
:10230000FFF73CFD00214FF48010FFF737FD56E04A
:10231000CA48844209D101214805FFF72FFD002159
:102320004FF40010FFF72AFD49E0C548844208D168
:1023300001214020FFF72FFD00214020FFF72BFD5A
:102340003DE0C048844208D101218020FFF723FDF1
:1023500000218020FFF71FFD31E0BB48844208D1F7
:1023600001218015FFF717FD0021A015FFF713FDD0
:1023700025E0B648844209D101210804FFF7FEFC9C
:1023800000214FF48030FFF7F9FC18E0B048844298
:1023900009D101214804FFF7F1FC00214FF400307E
:1023A000FFF7ECFC0BE0AB48844208D10121880424
:1023B000FFF7E4FC00214FF48020FFF7DFFC10BDA5
:1023C00000220288944B98420ED0994B98420BD031
:1023D000B0F1804F08D0914B984205D0904B984275
:1023E00002D0904B984204D14FF68F731A404B881D
:1023F0001A438D4B984207D08C4B984204D04FF62D
:10240000FF431A40CB881A4302808B8883850B8850
:102410000385814B98420BD0854B984208D08B4B5B
:10242000984205D08A4B984202D08A4B984201D1FB
:102430000B7A038601238382704770B50024002243
:102440000023058C4FF6FE7635400584028C838888
:10245000048B4FF68F752C40B51E2C400D882C43F5
:10246000751E2A400D892A434D882A436A4DA84289
:102470000BD06F4DA84208D0744DA84205D0744DC2
:10248000A84202D0734DA84213D14FF6F7752A40E7
:102490004D892A434FF6FB752A408D882A434FF613
:1024A000FF652B404FF6FF552B408D892B43CD897F
:1024B0002B4383800483CD888586028470BD70B5EC
:1024C000002400220023058C4FF6EF76354005846A
:1024D000028C8388048B48F6FF752C404FF6FF452D
:1024E0002C400D884FF6FF7606EA05252C434FF663
:1024F000DF752A400D8906EA05152A434D8806EA4C
:1025000005152A43444DA84202D0494DA8421DD189
:102510004FF67F752A404D894FF6FF7606EA05157E
:102520002A434FF6BF752A408D8806EA05152A43CF
:102530004FF6FF352B404FF2FF752B408D8906EA91
:1025400085052B43CD8906EA85052B4383800483CB
:10255000CD880587028470BD70B500240022002359
:10256000058C4FF6FF6635400584028C8388848B8A
:102570004FF68F752C404FF6FC752C400D882C4380
:102580004FF6FF552A400D894FF6FF7606EA0525DE
:102590002A434D8806EA05252A431F4DA84202D04A
:1025A000234DA8421DD14FF2FF752A404D894FF6A9
:1025B000FF7606EA05252A434FF6FF352A408D8827
:1025C00006EA05252A434EF6FF752B404DF6FF75AA
:1025D0002B408D8906EA05152B43CD8906EA0515A2
:1025E0002B4383808483CD888587028470BD70B53A
:1025F000002200230024058C4EF6FF76354005842A
:10260000038C8488828B48F6FF752A404FF6FF457D
:102610002A400D8820E00000002C0140000400400A
:1026200000080040000C0040001000400014004072
:1026300000340140004C0140005001400054014072
:1026400000180040001C00400020004000400140F5
:1026500000440140004801404FF6FF7606EA052598
:102660002A434DF6FF752B400D8906EA05352B43AD
:102670004D8806EA05352B43FA4DA84202D0FA4DA3
:10268000A84208D14BF6FF752C408D894FF6FF7696
:1026900006EA85152C4384808283CD88A0F84050BB
:1026A000038470BD828B4FF2FF331A408283828B8A
:1026B0004FF6FF7303EA01231A4382837047F0B594
:1026C0000C461546002200210026078C4EF6FF7CA2
:1026D00007EA0C070784828B018C4FF6FF7707EA25
:1026E000043640F6FF473A404FF6FF7707EA0527E2
:1026F0003A434FF6FF7707EA03373A43D94FB842D8
:102700000ED0D94FB8420BD0B0F1804F08D0D74F80
:10271000B84205D0D64FB84202D0D64FB84206D103
:102720004DF6FF77394046F48057394305E047F6C8
:10273000FF57394044F48057394382830184F0BD08
:10274000828B4FF6F3731A408283828B0A43828313
:102750007047F0B50C461546002200210026078C74
:102760004FF6FF6C07EA0C070784828B018C4FF64B
:10277000FF7707EA04264FF60C773A404FF6FF77CB
:1027800007EA03172F433A43B64FB8420ED0B64F6D
:10279000B8420BD0B0F1804F08D0B44FB84205D04A
:1027A000B34FB84202D0B34FB84206D14FF6FF57ED
:1027B000394046F48077394305E04FF2FF573940FE
:1027C00044F48077394382830184F0BD028B4FF259
:1027D000FF331A400283028B4FF6FF7303EA012393
:1027E0001A4302837047F0B50C46154600220021BB
:1027F0000026078C4FF6EF7C07EA0C070784028B54
:10280000018C4FF6FF7707EA041640F6FF473A407F
:102810004FF6FF7707EA03373A434FF6FF7707EAA9
:1028200005273A438F4FB8420ED08F4FB8420BD096
:10283000B0F1804F08D08D4FB84205D08C4FB842D0
:1028400002D08C4FB84206D14FF6DF77394046F0C0
:102850001007394305E04FF65F77394044F0100721
:10286000394302830184F0BD028B4FF6F3731A40A3
:102870000283028B0A4302837047F0B50C4615466B
:1028800000220021068C4FF6FE773E400684028B24
:10289000018C4FF60C7632407E1C06EA03162E435E
:1028A0003243704EB0420ED06F4EB0420BD0B0F1FA
:1028B000804F08D06D4EB04205D06D4EB04202D070
:1028C0006C4EB04206D14FF6FD76314044F0010621
:1028D000314305E04FF6F576314044F001063143CF
:1028E00002830184F0BD70B505460C465D48854203
:1028F0000ED05D4885420BD0B5F1804F08D05B48C3
:10290000854205D05A48854202D05A48854200D1B6
:1029100000E000BF208850B92389A288618828463A
:10292000FFF7ABFFE1882846FFF79EFF25E02088F0
:1029300004280AD12389A28861882846FFF753FF1B
:10294000E1882846FFF742FF17E0208808280AD1CF
:102950002389A28861882846FFF7FBFEE188284684
:10296000FFF7EEFE09E02389A28861882846FFF779
:10297000A6FEE1882846FFF795FE70BD2DE9F041DF
:1029800005460C4600260127608808B9022600E0AB
:102990000026A088012801D1022700E00127208815
:1029A000A0B92389A28861882846FFF766FFE188DD
:1029B0002846FFF759FF23893A4631462846FFF754
:1029C00012FFE1882846FFF701FF13E02389A28860
:1029D00061882846FFF707FFE1882846FFF7F6FEE3
:1029E00023893A4631462846FFF747FFE1882846C3
:1029F000FFF73AFFBDE8F0810A884B881A438B88BD
:102A00001A43CB881A430B891A434B891A438B8983
:102A10001A43A0F8442070474FF6FF7181800021CF
:102A20000180C18041800172704700210180418096
:102A30008180C180018141818181C18170470021F4
:102A400001804180012181800021C1800181704786
:102A50000021018041808180C1800181418181818B
:102A600070470000002C0140003401400004004089
:102A700000080040000C004021B1028842F0010231
:102A8000028004E002884FF6FE731A40028070470D
:102A900031B1B0F8442042F40042A0F8442005E0EF
:102AA000B0F84420C2F30E02A0F8442070471AB1D7
:102AB00083890B43838102E083898B438381704741
:102AC0008182704741EA0203A0F8483070471AB18A
:102AD00083890B43838102E083898B438381704721
:102AE00001894FF6F8721140018170470A460021B2
:102AF00001894FF68F73194011430181704730B53A
:102B000004460D4629462046FFF7F0FF208940F095
:102B10000700208130BD2DE9F04104460D461646E0
:102B20001F46602D06D13B46012231462046FFF765
:102B30005AFE05E03B46012231462046FFF79DFE46
:102B400029462046FFF7D2FF208940F00700208168
:102B5000BDE8F08130B50C4600210189C9B24FF6BD
:102B6000FF7505EA0325154325432943018130BD3F
:102B70002DE9F04105460E46174698460024434687
:102B80003A4631462846FFF7E5FF2C894FF6F870A4
:102B9000044044F007044FF68F70044044F0700482
:102BA0002C81BDE8F081F0B504460D4616461F465F
:102BB0003B46324629462046FFF7CCFF208940F4A9
:102BC00080402081F0BD0185828270470A46002145
:102BD00001884FF68F731940114301807047F0B59B
:102BE0000C4615461E460021002200230189028B57
:102BF000038C4FF6F877394021434FF6FC473A40B3
:102C000040F201173A434FF6DD773B404FF6FF772E
:102C100007EA06172F433B43018102830384F0BD7B
:102C20000A460021018B4FF68F731940114301832F
:102C300070470A460021018B48F6FF7319404FF692
:102C4000FF7303EA02231943018370470A460021F8
:102C5000818B4FF68F7319401143818370470A4669
:102C60000021818B48F6FF7319404FF6FF7303EA8A
:102C7000022319438183704721B1028842F0800208
:102C8000028004E002884FF67F731A40028070478A
:102C900021B1828842F00402828004E082884FF6EB
:102CA000FB731A408280704721B1828842F008028B
:102CB000828004E082884FF6F7731A408280704762
:102CC00021B1828842F00102828004E082884FF6BE
:102CD000FE731A40828070470A460021018B4FF62E
:102CE000F77319401143018370470A460021018B95
:102CF0004FF2FF7319404FF6FF7303EA02231943A3
:102D0000018370470A460021818B4FF6F773194003
:102D10001143818370470A460021818B4FF2FF7374
:102D200019404FF6FF7303EA02231943818370476A
:102D30000A460021018B4FF6FB73194011430183B2
:102D400070470A460021018B4FF6FF3319404FF6BA
:102D5000FF7303EA02231943018370470A460021E7
:102D6000818B4FF6FB7319401143818370470A46EC
:102D70000021818B4FF6FF3319404FF6FF7303EAB2
:102D800002231943818370470A460021018B4FF6C5
:102D90007F7319401143018370470A460021018B5C
:102DA000C1F30E014FF6FF7303EA022319430183B7
:102DB00070470A460021818B4FF67F7319401143FB
:102DC000818370470A460021818BC1F30E014FF6C3
:102DD000FF7303EA02231943818370470A460021E7
:102DE000018C4FF6FD7319401143018470470A4668
:102DF0000021018C4FF6F77319401143018470478D
:102E00000A460021018C4FF6DF7319404FF6FF731D
:102E100003EA02131943018470470A460021018C1A
:102E20004FF67F7319404FF6FF7303EA02131943FD
:102E3000018470470A460021018C4FF6FF53194068
:102E40004FF6FF7303EA02231943018470470A46D1
:102E50000021018C4FF2FF7319404FF6FF7303EA14
:102E600002231943018470470A460021018C4DF664
:102E7000FF7319404FF6FF7303EA023319430184CD
:102E8000704730B5002301248C40A3B2048C9C43CE
:102E90000484048C02FA01F5ADB22C43048430BDE5
:102EA00030B5002304248C40A3B2048C9C430484DA
:102EB000048C02FA01F5ADB22C43048430BD70B528
:102EC0000346002000241846183001258D40ACB27E
:102ED0001D8CA5431D8409B1082909D100EB6100AF
:102EE000056825F0700505600568154305600EE06E
:102EF0000D1FC5F34E052844056825F4E04505601F
:102F000005684FF6FF7606EA02263543056070BD78
:102F100021B1028842F00202028004E002884FF6EA
:102F2000FD731A400280704721B1028842F004020A
:102F3000028004E002884FF6FB731A40028070475B
:102F400021B1828842F08002828004E082884FF6BC
:102F50007F731A408280704702884FF6F7731A40D9
:102F6000028002880A430280704782884FF68F737E
:102F70001A40828082880A438280704702894FF615
:102F8000F8731A40028102890A430281704702895C
:102F90004FF67F731A40028102890A43028170470B
:102FA00081847047818570478186704701877047AB
:102FB00081877047A0F84010704702884FF6FF43A2
:102FC0001A40028002880A43028070470146888EB8
:102FD00070470146088F70470146888F7047014649
:102FE000B1F8400070470146888C70470146088D53
:102FF000704702460020138A0B400BB1012000E00D
:1030000000207047CA430282704730B50246002054
:1030100000230024158A05EA0103958905EA0104C5
:1030200013B10CB1012000E0002030BDCA43028280
:1030300070470000002044490860091D0860091D10
:103040000860091D086041483F4914310860704715
:1030500000213D498279002A3AD00A461268036865
:103060009A430B461A600A1D126803689A430B1DA7
:103070001A60027911440A6803681A430A60324AE6
:103080000832126803689A432F4B08331A601A1DDE
:10309000126803689A432C4B0C331A604279102A49
:1030A0000ED11A1F126803681A43274B08331A609F
:1030B0001A1D126803681A43234B0C331A600DE083
:1030C0002149427911440A6803681A430A6005E0FD
:1030D000027911440A6803689A430A607047002124
:1030E000016001710C214171002181717047164905
:1030F000103109680143144A1032116070470146CB
:103100000020114A143212680A400AB1012000E07E
:10311000002070470C4914310860704701460020B8
:103120000022094B1B6803EA0102074B14331B689A
:103130000B4013B10AB1012000E0002070470249A2
:10314000143108607047000000040140FFFF0F00C9
:10315000704700000FB4044910B503AA029800F0AC
:1031600051F910BC5DF814FB280000202DE9F04156
:103170000E460446002020622046E168884730B3AE
:10318000252805D0D4E901219047206A401CF2E7A8
:10319000E168204600278847050018D0A5F14100C6
:1031A000192802D820354FF40067324629462046B8
:1031B0002760FCF7F7FF40B1012804D0F61D26F088
:1031C00007060836D8E7361DD6E72846DAE7206A2C
:1031D000BDE8F08170B50C460546012A05D0287877
:1031E000800600D5EA69002302E0012305E05B1CAC
:1031F000934202D2E05C0028F9D1A869E618C01A0F
:10320000A861286A184428622846AFF3008004E0C9
:10321000D5E9012114F8010B9047B442F8D32846B0
:10322000AFF3008070BD00002DE9F0410646002498
:1032300010687529314616A510D0AFF3008000281C
:1032400002DA404213A507E031688A0701D512A5CA
:1032500002E0490704D511A5012401E0AFF3008085
:1032600000210A2206F1240709E0B0FBF2FCB0FBC2
:10327000F2F302FB1C00303078541846491C002839
:10328000F3D123462A463046BDE8F04100F04AB863
:10329000000000002D0000002B00000020000000B6
:1032A00070B504460D4621461068AFF300802188B2
:1032B000090502D50F4A7A4402E00E4A7A440E32DA
:1032C000002104F1240305E000F00F060009965DDB
:1032D0005E54491C0028F7D120780023000704D54C
:1032E000702D02D009B1022311322046BDE8704092
:1032F00000F018B80602000030B505460B462A4615
:1033000013F8014B12F8010B08B1A042F8D01CB120
:10331000002802D06D1CF1E7284630BD7047704789
:10332000704770472DE9F0470D469946924604468E
:1033300000F124080168880604D5E06921F0100135
:10334000216000E00120A84201DD471B00E00027CA
:10335000A1697A1902EB0900081AA0612078C00659
:1033600002D42046AFF30080002608E0D4E9012112
:103370001AF806009047206A401C761C20624E45D1
:10338000F4DB2078C0060AD52046AFF3008006E0C3
:10339000D4E9012130209047206A401C2062381E69
:1033A000A7F10107F4DC07E0D4E9012118F80500D2
:1033B0009047206A401C2062281EA5F10105F3DC1D
:1033C0002046AFF300802078000602D50220BDE839
:1033D000F0870120FBE710B5436913B1AFF300801C
:1033E00001E0FFF7F7FE012010BD127800F1240183
:1033F0000A7000224A700122EDE711684FF0FF3297
:10340000E9E70000074B70B50D467B4400F011F86A
:103410000446284600F020F810B14FF0FF3070BD90
:10342000204670BD0DE0FFFF01694A1C026108786B
:10343000704700B58FB0CDE90131002105910549F4
:103440007944CDE9031011466846FFF78FFE0FB0AF
:1034500000BD0000E5FFFFFF007B00F0800070472B
:10346000754600F029F8AE4605006946534620F03F
:103470000700854618B020B5FEF7CAF8BDE8204021
:103480004FF000064FF000074FF000084FF0000B20
:1034900021F00701AC46ACE8C009ACE8C009ACE8D3
:1034A000C009ACE8C0098D4670470446AFF3008000
:1034B0002046FCF78FFE00000048704738040020CB
:1034C000303132333435363738394142434445465A
:1034D0004030580030313233343536373839616254
:1034E00063646566403078000835000800000020FD
:1034F000440000006C0100084C3500084400002026
:10350000540A0000880100080000000000127A0040
:103510000000000000000000010203040607080983
:1035200000000000FFFFFFFF00000000000000009F
:10353000000000000000000000000102030401027E
:0C35400003040607080902040608000046
:0400000508000131BD
:00000001FF
